:020000040800F2
:10000000B8070020AD010008B5010008B7010008DD
:10001000B9010008BB010008BD0100080000000094
:10002000000000000000000000000000BF01000808
:10003000C101000800000000C3010008C50100085C
:10004000C7010008C7010008C7010008C701000870
:10005000C7010008C7010008C7010008C701000860
:10006000C7010008C7010008C7010008C701000850
:10007000C7010008C7010008C7010008C701000840
:10008000C7010008C7010008C7010008C701000830
:10009000C7010008C7010008C7010008C701000820
:1000A000C7010008C7010008C7010008C701000810
:1000B000C7010008C7010008C7010008C701000800
:1000C000C7010008C7010008C7010008C7010008F0
:1000D000C7010008C7010008DD1F0008C7010008AC
:1000E000C7010008C7010008C701000800F002F8B6
:1000F00000F04DF80AA090E8000C82448344AAF175
:100100000107DA4501D100F042F8AFF2090EBAE872
:100110000F0013F0010F18BFFB1A43F0010318473B
:100120003C2F00005C2F0000103A24BF78C878C133
:10013000FAD8520724BF30C830C144BF04680C60ED
:10014000704700000023002400250026103A28BF35
:1001500078C1FBD8520728BF30C148BF0B60704739
:10016000662902F0B186002070471FB500F0ACFB95
:1001700004000020002102F061FA401C60600020B1
:10018000002102F045FAE0601FBD10B510BD00F07F
:10019000C7FC1146FFF7E9FF02F03CF900F06AFFE7
:1001A00003B4FFF7F2FF03BC01F0D8F90948804718
:1001B00009480047FEE7FEE7FEE7FEE7FEE7FEE749
:1001C000FEE7FEE7FEE7FEE704480549054A064B61
:1001D000704700007D1F0008ED000008B8010020F6
:1001E000B8070020B8030020B80300200FB41CB5E6
:1001F000074B06AA7B4469460090059800F0D1FAA7
:100200000020694600F0E0FA1CBC5DF814FB000019
:10021000D10500002DE9F0410E4604460020206281
:100220002046E168884730B3252805D0D4E901216C
:100230009047206A401CF2E7E16820460027884783
:10024000050018D0A5F14100192802D820354FF437
:1002500000673246294620462760FFF781FF40B1FC
:10026000012804D0F61D26F007060836D8E7361D0B
:10027000D6E72846DAE7206ABDE8F08140EA0103C4
:10028000024630B59B0710D14FF0013400E008C2A0
:1002900008C91D1B9D4315EAC41FF8D013F0FF01C8
:1002A00002F8011B0DD01B0AF8E711F8013B002BE7
:1002B00002F8013B05D011F8013B002B02F8013B8D
:1002C000F3D130BD10B5431C02E010F8011B71B131
:1002D0008107FAD14FF0013202C88C1A8C4314EA1C
:1002E000C211F9D0C01A0A0603D0C01E10BDC01A30
:1002F00010BD0A0401D0801E10BD0902FCD0401EB2
:1003000010BD421E12F8013F002BFBD111F8013B3A
:10031000002B02F8013BF9D170474FF0000204298D
:10032000C0F0128010F0030C00F0A882CCF1040C95
:10033000BCF1020F18BF00F8012BA8BF20F8022B58
:10034000A1EB0C0100F09ABA5FEAC17C24BF00F86F
:10035000012B00F8012B48BF00F8012B70477047B4
:100360007047704710B500F0B3FA006810BD10B5C3
:10037000044600F0ADFA046010BD70472DE9FF4F50
:100380000C461E464FF0FF378BB0D2E90001DDF876
:1003900060800A908A46C1F30A5505B93D4600219E
:1003A00008464FF00000BAF1000F00F4400005DAF3
:1003B00000EB80004FF4400101EA50004FEA9059F1
:1003C000B9F1010F00DDB9460A9850EA4A000ED093
:1003D00044F61050A5F2FF3545432F14B8F1000F35
:1003E0001ED07542291E1EDDC9F100021CE0B8F1C5
:1003F000010F4FF0000001D0302103E0F24305E08F
:100400002154401CB042FBDB304600220021215425
:100410000B99C1F80880C1E900200FB0BDE8F08F4A
:10042000BD1B6D1CDEE74A4600DA694206A800F0F3
:1004300001FB06AB93E8070003AB83E807005046D7
:100440000A9901F0B3F88DE80700A0F500501F38B5
:1004500000900398002D0ADD42F21F014A4608442D
:10046000002303A90390684601F05EFB09E0A0F5B4
:1004700000504A461F38002303A90390684601F044
:100480007DFB8DE807000004000C03D04FF0FF3027
:10049000410800E01046B8F1000F03D0002200929E
:1004A00015461EE0751E05D400F016FA303262556E
:1004B0006D1EF9D5B3460122084302D000227F1CED
:1004C00004E02078302801D100227F1E002A0997FD
:1004D00084D01DE0112D07DA00F0FEF930326255AC
:1004E0006D1C50EA0102F5D1084302D00098C8B152
:1004F0000EE00021681E05E0235C625C6354225418
:10050000401E491C8142F7DBAB46A81B401E0990E8
:10051000002004F80B000B98099AC0F80880C0E985
:10052000002B7AE711264FF0000857E72DE9F04F2E
:1005300088460446D21D22F0070191B0D1E900019E
:10054000CDE90A0101F04EFD02460B98C00F01D023
:100550002D2007E02068810701D52B2002E0202113
:1005600001EAC000032A099001D0072A05DB0346EF
:100570004146204600F0FEF90BE12078800601D5C7
:10058000E06900E00620B8F1650F814606D0B8F1B9
:10059000660F18D0B8F1670F70D131E00020B9F1C3
:1005A000110F009001DB112301E009F101030AAAF8
:1005B00001A90CA8FFF7E2FEDDE90C70002609F1A5
:1005C0000105834647E001204B4600904FF000476D
:1005D0000AAA01A90CA8FFF7D1FEDDE90DB00C991C
:1005E0005D46002610B909F101000D18B9EB0500B0
:1005F00003D4C0F1FF3609F10105A5EB09002BE09A
:10060000B9F1010F01DA4FF001090020B9F1110F22
:100610000090484601DD112300E003460AAA01A923
:100620000CA8FFF7ABFEDDE90C704D4600268346B3
:10063000207800070AD4AB4500DA5D4601A8012DF9
:1006400004DD411911F8011C302907D04F4502DAA9
:1006500017F1040F04DA012082460FE06D1EEEE769
:10066000002F02DCED1B3E4403E0781CA84200DDB5
:100670007D1CB81B00F1010A4FF0004720780007ED
:1006800003D4AA4501DB4FF0FF3A0021B7F1004F38
:100690000DF143088DF8431024D002202B23002FA6
:1006A00001DA7F422D230A21021EA0F1010000DCA5
:1006B0005FB197FBF1FC97FBF1F201FB1C7C174645
:1006C0000CF1300C08F801CDEEE7A8F10100037041
:1006D0002188090501D5452100E06521A0F1010827
:1006E00000F8011C09980FA9A1EB0807FF1D00B134
:1006F0000120411901EBEA70A1693844081A401E33
:10070000A0612078C00602D42046AFF3008009988B
:1007100028B1D4E901219047206A401C206220784A
:10072000C00622D52046AFF300801EE0002E04DB79
:10073000B34502DD01A8805D00E03020D4E901214D
:100740009047206A401C2062761CAAF101005FEAF3
:10075000000A0AD100F0B8F8C0680168405CD4E92A
:1007600001219047206A401C2062281EA5F1010546
:10077000DCDC07E0D4E9012118F8010B9047206A7E
:10078000401C2062381EA7F10107F3DC2046AFF3BE
:100790000080032011B041E601694A1C026108781B
:1007A000704700B58FB0CDE90131002105910549B1
:1007B0007944CDE9031011466846FFF72BFD0FB0D1
:1007C00000BD0000E5FFFFFF0A6802F8010B0A60A8
:1007D000704700000FB4002300B589B00CA9009148
:1007E0000B99CB60214B7B440693214B7B440793B1
:1007F00004236FF00042CDE901321E4A7A446B4671
:1008000008920246002002F0C1FB09B05DF814FB1B
:1008100070B506464FF0FF3015460C46324686B09E
:100820000091CDE9010169460020049004A8FFF77A
:10083000D1FF02460498211825B108B1084600E00E
:1008400020462860049800280DD0002A02DD009878
:10085000884208D03246081B69460094CDE901045D
:1008600004A8FFF7B7FF06B070BD00000B02000040
:1008700023020000630100004FF0000200B51346A0
:1008800094469646203922BFA0E80C50A0E80C50B0
:10089000B1F12001BFF4F7AF090728BFA0E80C5061
:1008A00048BF0CC05DF804EB890028BF40F8042B5A
:1008B00008BF704748BF20F8022B11F0804F18BFC7
:1008C00000F8012B704700000048704774010020B9
:1008D000004870475401002030B5B0F10A024FEAD9
:1008E000900E71F100034EEA817EB0EB0E0061EBD9
:1008F00091014FEA101E4EEA017E10EB0E0041EB13
:1009000011114FEA102E4EEA016E10EB0E0041EB72
:1009100011214FEA104E4EEA014E10EB0E0041EB52
:100920001141401841F100014FEAD00040EA417006
:100930004FEAD10110EB80054FEA810444EA90743C
:1009400044EB01046D1944EB0404521BA3414FF026
:10095000000348BF0A3200D530BD401C41F1000100
:1009600030BD10B5044600F001F90068005D00F0EC
:10097000010010BD2DE9F0411F4604460326016821
:10098000072A01F4006004DB08B116A505E016A5EE
:1009900003E008B115A500E015A521F010002060C6
:1009A000A069C01EA0610FB1401EA0612046AFF338
:1009B00000804FB1D4E9012138469047206A401C9D
:1009C0002062C01C206206E0206AFAE7D4E9012117
:1009D00015F8010B9047761EF8D22046AFF3008041
:1009E000BDE8F0814E414E006E616E00494E4600FA
:1009F000696E6600426842B1016811F8013B23B19B
:100A0000521EC0E90012184670470121C160881EBD
:100A1000704742685AB1C368016843B983688B4222
:100A200005D0491E521CC0E90012002070474FF04B
:100A3000FF3070472DE9F047814616468AB03548A9
:100A400078440DC88DE80D0032487844801C03AC12
:100A50000DC884E80D0041F69B300844372190FB17
:100A6000F1F290FBF1F5A5F1800501FB12041B3CAE
:100A700002D56442012000E00020DFF898A0804603
:100A80000027FA44AAF1BE0A0EE0E0070AD0324677
:100A9000684607EB470101230AEB810101F06EF87C
:100AA0008DE8070064107F1C002CEED1194F7F44A5
:100AB000AE3F19E0E80715D007EB04100DF1180A56
:100AC00090E80E008AE80E00C068F04201D1981943
:100AD00008903246012306A903A801F04FF803ABA2
:100AE00083E807006D10641C002DE3D14FF0010373
:100AF00032466946B8F1000F03A802D001F014F89D
:100B000001E001F03BF8C9E90001C9F808200AB08A
:100B1000BDE8F0870026000000487047540100201F
:100B20007546FFF7F9FFAE4605006946534620F0CB
:100B30000700854618B020B5FFF746FBBDE820400A
:100B40004FF000064FF000074FF000084FF0000B89
:100B500021F00701AC46ACE8C009ACE8C009ACE83C
:100B6000C009ACE8C0098D467047000010B5FFF71A
:100B7000ABFE001D10BD00BFC51A00002DE9FF4FE0
:100B800006468BB00878FF2806D0491C2D2805D0D2
:100B900000244FF0000908E000200CE00124F8E7F1
:100BA00009EB8903491C00EB43090878FF28F7D1BA
:100BB00014B1C9F100008146107800252C46AA46E0
:100BC00029462D2801D02B2804D1521C2D2813D0C2
:100BD000002082468B461078FF280FD04FF0000C83
:100BE0000A21521CA5FB017804FB018105FB0C11B5
:100BF000C5194BEB0104EEE70120EAE700210846A6
:100C00004FF00000BAF1000F02D000EB8000400866
:100C1000C0F38157012F01DD4FF0FF370E9955EAE0
:100C2000040009EB01080BD04FF0020918F5FA7F18
:100C300016DA4FEACA70002F706008DD012007E065
:100C40004FEACA70C6E900B00FB0BDE8F08F0020CF
:100C50003060FFF73DFEC0F800901821084616E00E
:100C6000B8F5FA7F18DD002F02DAF748784401E082
:100C7000F6487844D0E90010C6E9001040EACA708E
:100C80007060FFF725FEC0F80090142108460FB0F1
:100C9000BDE8F04F02F015B9002108464FF0000002
:100CA000B8F10001099002DAC7F1000200E03A460B
:100CB00001DAC8F1000106A8FFF7BCFE06AB93E815
:100CC000070003AB83E8070044F23E005BEA04013F
:100CD0000090584604D144F21E012C465D46009116
:100CE000210C0904014306D10099240444EA154467
:100CF0002D041039009104F07F41014306D1009981
:100D0000240244EA15642D020839009104F0704170
:100D1000014306D10099240144EA15742D01091FED
:100D2000009104F04041014306D10099A40044EA37
:100D30009574AD00891E009104F00041084304D170
:100D400000986D196441401E00904FF001033A462F
:100D50006846B8F1000FCDE9014503A902DD00F0B6
:100D600022FF01E000F0F5FEBAF1000F04460D4647
:100D700001D084F00044002108464FF0000009999A
:100D800040F2FF77484010F00C0F07D124F00040EC
:100D9000284303D0C4F30A50B84212D1FFF798FD9C
:100DA000C0F80090C4F30A50B8420AD1A848784469
:100DB000D0E90010C6E9001004F00041084370605B
:100DC00042E7C6E900543FE72DE9FF4F1F464FF0C9
:100DD000000A4FF0FF38454691B0D7E90146CDF8FB
:100DE0003CA0FFF771FDC0680168405C1090B969D4
:100DF00012986D1C8847396A814688470028F6D1C9
:100E0000B9F1FF3F0AD0002E24F4D06411DDB9F10E
:100E10002B0F08D0B9F12D0F0BD102E0404615B0D1
:100E200013E744F48064B96912986D1C8847761EF4
:100E30008146600504A901D52D2000E02B20002E5D
:100E400001F1010B0DF130088DF810003FDDB9F113
:100E5000690F08D0B9F1490F05D0B9F16E0F02D072
:100E6000B9F14E0F1CD13B4601A8009580E8500215
:100E7000DDE912126FF0020002F08CF8C11CCED135
:100E80000EE0B96912986D1C884781461398761E4A
:100E900044F4007405600F98401C002E0F9016DD7E
:100EA000B9F1300FEDD0B9F1780F02D0B9F1580F88
:100EB0000DD10F9801280AD13B46CDE90054DDE958
:100EC0001212001F029602F063F8C11CA7D11099FC
:100ED00089453ED144F0800406E01399681CAAF1CC
:100EE000010A44F400740860B9696D1C1298761EFA
:100EF000884730288146F0D02BE01099894505D1EC
:100F0000200603D4761E44F0800418E0484601F021
:100F1000FEF808B3761E0DF123018B4544F40074EE
:100F200008D2A9F130000BF8010B200607D5AAF171
:100F3000010003E0200602D40AF101008246A00568
:100F400002D51399681C0860B96912986D1C88470E
:100F50008146002ED1DC53E0002E51DDB9F1650F42
:100F600002D0B9F1450F4BD1A00549D5B9696D1C27
:100F70001298761E24F440748847002E81460CDDBA
:100F80002B2804D0B9F12D0F07D144F48074B9692E
:100F900012986D1C8847761E8146E00501D52D21EB
:100FA00000E02B2108F8011BCDF8008021E0761E1F
:100FB0000DF13901884544F400740CD2A9F13000D8
:100FC00010F0FF0088F8000002D10099884509D987
:100FD00008F1010806E0E00501D51E4801E042F2F3
:100FE0000F708246B96912986D1C88478146139824
:100FF0000560002E04DD484601F089F80028D6D1AE
:10100000F96912988847FF2053468BF8000088F84A
:10101000000000200A900B9004AA0CA90AA8FFF770
:10102000ADFDA00502D46FF00100F8E614F0240F26
:1010300012D0E0071CD13868DDE90A12031D3B60BD
:101040000068C0E9001213E0142400000624000028
:10105000CA220000F1D8FFFF0AA9684600F0E6FFA7
:10106000E00705D13868009A011D39600068026008
:101070002846D4E610B50446AFF300802046BDE80C
:101080001040FFF78DB800004FF0013C50F8042BE2
:1010900051F8043B9A4221D1A2EB0C03934313EA8B
:1010A000CC1317D150F8042B51F8043B9A4215D1B8
:1010B000A2EB0C03934313EACC130BD150F8042B8F
:1010C00051F8043B9A4209D1A2EB0C03934313EA73
:1010D000CC13DBD04FF00000704700BFD01A01BA2C
:1010E000B1FA81F101F0180122FA01F0CB40C1F10F
:1010F0002001DBB2C0B2C01A2CFA01F3D11A91431D
:1011000011EAC311E6D170472DE9FF4F1F464FF09A
:101110003C0987B04FF00042DDE9141001F10108ED
:10112000DDF858A002EA4050039000200590834665
:10113000054604460490B969461E08988847AAF1F6
:10114000010A0290BAF1000F3BDD02982E2815D05B
:10115000102100F01CFA00282EDB4FF0010B05993E
:10116000014317D0B9F1000F0BDB4A46C11700F05D
:10117000FBF905430C43A9F1040905E001200490A3
:101180000BE008B145F0010501200590049820B955
:10119000361D02E0049800B1361FB969089808F1BD
:1011A00001088847BBF1000FAAF1010A0290C9D0DB
:1011B0000999C1F80080C5E70298702808D0502826
:1011C00006D0F96908988847BBF1000F14D04FE0AA
:1011D000002002900120BBF1000F049009D0B969F2
:1011E000089808F101088847AAF10109B9F1000F30
:1011F00007DCF969089888476FF001000BB0BDE87B
:10120000F08F2B2804D02D280CD14FF0FF30049004
:10121000B969089808F101088847A9F10109B9F1ED
:10122000000FE6DD411CE4D00A2100F0B0F90028EF
:10123000DFDB029908F1010801EB810100EB4100BD
:101240000290B969089888470A2100F0A0F9099A24
:10125000A9F10109B9F1000FC2F8008001DD0028F1
:10126000E7DAF969089888470499029800FB016653
:1012700055EA040004D004F04041090002D006E021
:10128000039898E0A40044EA9574AD00B61E04F0FB
:101290000041080002D16D196441761E159810F0C6
:1012A000240F03D04FF00B095C4803E04FF02809EE
:1012B0006FF07D008246564507DAAAEB06018944A5
:1012C000B9F1410F01DD4FF0410901200021A9F1E1
:1012D000010200F049F9024628400B46214008432C
:1012E00001D0012100E00021501E029143F1FF31A5
:1012F00028402140084301D0012000E0002002994D
:10130000834651EA0B014FD0002108464FF0000000
:10131000039900F4400039B100EB80004FF4400124
:1013200000EBD07001EA60008015012802DD4FF06B
:10133000FF3000E013D0401C36D0029860B3BBF100
:10134000000F0CD14A460120002100F00DF9284081
:101350002140084301D0012000E00020E0B101203D
:101360004A46002100F000F9034640190A4661414F
:101370002D1A8C4111D3B9F1400F09DD159810F0E9
:10138000240F02D0AAF1340603E0AAF1170600E008
:10139000761C00254FF0004406E05B1E42F1FF3250
:1013A00020EA030521EA0204CAF10100B04206DA8C
:1013B0001B49039808430190002000900EE0039A17
:1013C000C4F3D321E80A0A43164940EA44500A43C9
:1013D0003146CDE90002684600F08EFE159810F007
:1013E000240F0BD01598C00715D13868DDE900121D
:1013F000031D3B600068C0E900120CE002A86946CA
:1014000000F014FE1598C00705D13868029A011D36
:101410003960006802604046F0E6000002FCFFFF11
:101420000000F07F0000F03F2DE9FF4F92461D467F
:1014300085B04FF00041DDE9124BDDE914727F1EEB
:1014400001EA4B50414940F0FF4940EA01080021C0
:1014500022F020004928049102D04E2828D04CE0E8
:101460003BA0012607C88DE80700A9690698641CFF
:1014700088477F1E014606D41DF8060018B121F0EA
:10148000200181420BD0E96906988847032E34D0A9
:10149000082E32D06FF0010009B0BDE8F08F761C45
:1014A000032E01D0082EE0D1601CCAF80000DCE752
:1014B000A9690698641C88477F1E2AD420F0200062
:1014C000412826D1A9690698641C88477F1E20D42C
:1014D00020F020004E281CD1A9690698641C88477A
:1014E0007F1E48F4002849F48009CAF8004001D45E
:1014F000282806D0E969069888475FEACB7012D0A1
:1015000022E0A9690698641C88477F1E01D4002840
:1015100003DAE96906988847BCE72928F1D1641CF9
:10152000CAF80040E9E71BF0240F07D028680499A7
:10153000031D2B600068C0E9001805E02868021D43
:101540002A600068C0F800902046A5E70000F07F00
:10155000494E46494E49545900000000014918209F
:10156000ABBEFEE726000200B2F120030AD5C2F1AD
:10157000200301FA02F120FA03F300FA02F041EA33
:101580000301704700FA03F14FF0000070473A285A
:1015900000D2303820F02002412A01D3A2F13700D6
:1015A000884201D34FF0FF30704770475FEA400C2C
:1015B00008BF91F0000F4FEA8C234FEAC12243EAA3
:1015C00051514FEA1C5018BF00F5F0404FEA30006F
:1015D00018BF41F000415FEA6C5C00F02980BCF16B
:1015E000FF3F08BF40F080407047130C06BF120455
:1015F0004FF0100C4FF0000C130E04BF12020CF150
:10160000080C130F04BF12010CF1040C930F04BF5C
:1016100092000CF1020CD30F04BF52000CF1010C2C
:1016200011464FF00002A0F11F00A0EB0C00704724
:1016300011F0004F08BF704731F000413FF4D5AFC3
:101640000B0C06BF09044FF0100C4FF0000C0B0EF2
:1016500004BF09020CF1080C0B0F04BF09010CF1C7
:10166000040C8B0F04BF89000CF1020CCB0F04BFDC
:1016700049000CF1010CCCF12003A0EB0C0022FA84
:1016800003F302FA0CF241EA030100F10100704792
:1016900020F07F4C80EA030023F07F47ACEB070388
:1016A00003F57C5300F0004003F1FF032DE980496E
:1016B0004FEA154B09B44FEA144325EA0B4E24EACE
:1016C00003480FF2042606EB132749083E785FEA29
:1016D000320203FB0667C7F5000707FB06F64FEA71
:1016E00054374FEAD64606F1020607FB066CCCF1EA
:1016F000005C4FEA1C472CEA074C07FB06F40CFB86
:1017000006F504EB15464FEA961634BF00204FF05D
:1017100000404FEAD13706FB07FC4FEA1C4C0CFB9C
:101720000BF7D21B03FB0CF761EB07010CFB0EF769
:10173000B0EB074072EB17420CFB08F734BFA2EB8B
:101740000742B2EB074261EB17414FEA0C444FEA04
:10175000910706FB07FC4FEA1C4C0CFB0BF7B0EBA8
:10176000C74072EB573203FB0CF734BFA2EBC74202
:10177000B2EBC74261EB57310CFB0EF7B0EBC70081
:1017800072EB57720CFB08F734BFA2EBC702B2EB47
:10179000C70261EB5771039F4FEA816141EA9211E1
:1017A00004EBCC044FEAD1374FEA826206FB07FC18
:1017B00042EA90124FEA80604FEA1C4C0CFB0BF798
:1017C000D21B03FB0CF761EB07010CFB0EF7B0EB30
:1017D000074072EB17420CFB08F734BFA2EB07423D
:1017E000B2EB074261EB17414FEA8C554FEA910784
:1017F00004EB9C2406FB07FC4FEA1C4C0CFB0BF78C
:10180000B0EBC74072EB573203FB0CF734BFA2EBCF
:10181000C742B2EBC74261EB57310CFB0EF7B0EB9E
:10182000C70072EB57720CFB08F734BFA2EBC7027C
:10183000B2EBC70261EB577115EB4C254FEA8161A2
:1018400041EA92114FEA82624FEAD13742EA90129E
:1018500006FB07FC44F100044FEA80604FEA1C4C91
:101860000CFB0BF7D21B03FB0CF761EB07010CFB26
:101870000EF7B0EB074072EB17420CFB08F734BFD2
:10188000A2EB0742B2EB074261EB174115EB1C15C7
:101890004FEA813141EA92414FEA823242EA904274
:1018A0004FEA80304FEA0C7644F1000448EA0343E3
:1018B0004EEA0B484FF0000EB2EB080C71EB030739
:1018C00024BF624639464EEB0E0E4FF0000B001857
:1018D000524149414BEB0B0BB2EB080C71EB030788
:1018E0007BF1000B24BF624639464EEB0E0E4FF0E3
:1018F000000B0018524149414BEB0B0BB2EB080CAB
:1019000071EB03077BF1000B24BF624639464EEBB7
:101910000E0E51EA020718BF46F0010616EB0E76CE
:1019200055F1000254F1000103D5BDE88901BDE87D
:101930000088BDE88901BDE80048B619524141EB75
:101940000101A3F10103704780807F7E7D7C7B7A5B
:101950007978777676757473727171706F6E6E6D5B
:101960006C6C6B6A6A696868676666656464636301
:1019700062616160605F5F5E5E5D5D5C5C5B5B5A87
:101980005A595958585757565655555554545353F4
:1019900052525251515050504F4F4F4E4E4D4D4D4F
:1019A0004C4C4C4B4B4B4A4A4A494949484848479A
:1019B00047474746464645454544444444434343D8
:1019C000434242424241414146EA0646A3F5705332
:1019D0004FEA164646EA42564FEAD22242EA4152BE
:1019E00010B54FEAD121A3F1010300F02FF820F048
:1019F000004000F1020C00F0004701EB00501146DE
:101A0000BCF5006F40EA070000D210BDBAF1000F2C
:101A10000AD01CB503B44FF004004FF004014FF09E
:101A200000000FBCBDE810404FF00001BBF1010FFA
:101A3000B9BF04484FF0FF310348002140EA0700D6
:101A400010BD00BFFFFFEF7F0000F07F002B9C4622
:101A500030D477002BD01CB54FEA370703B44FF0D2
:101A600010004FF01001BAF1000F06D0BCF1000FCA
:101A7000DCBF40F0080040F008014FF000000FBC50
:101A8000BDE810400BF1010BBBF1010F08BF5FEA8D
:101A9000170722BF12F1010211F101014FF00041BD
:101AA00043F1000300F0004043EA00007047F9D31F
:101AB0005708D0E746EA064613F1400F4FEA1646AC
:101AC0001FDD13F1200FDFBF16430A46002120332C
:101AD0005B42BED0C3F1200746EA064602FA07F78A
:101AE0004FEA164646EA0706C3F1200722FA03F238
:101AF00001FA07F721FA03F14FF0000342EA070267
:101B0000A7E746EA020646EA06464FEA164646EACE
:101B10000106BCBF46EA0646360C4FF000034FF004
:101B200000024FF0000194E72DE9804C9A4693465D
:101B300070B491E8380007C831EA400C48BF34EA75
:101B4000430C03D5FFF7A4FDFFF780FFF0BCBDE811
:101B5000008C2DE9804C9A46934670B491E8380089
:101B600007C831EA400C48BF34EA430C03D5FFF7FD
:101B70008FFDFFF729FFF0BCBDE8008C2DE9804CFC
:101B80009A46934670B491E8380007C810F0804F29
:101B900008BF13F0804F03D100F01AF8FFF756FF8B
:101BA000F0BCBDE8008C2DE9804C9A46934670B499
:101BB00091E8380007C810F0804F08BF13F0804F3D
:101BC00003D100F005F8FFF7FFFEF0BCBDE8008C84
:101BD00020F07F4780EA030023F07F4C07EB0C03E3
:101BE000A3F57C5300F00040A3F1FE0392F0000F38
:101BF00000F0B38095F0000F00F077802DE90149E7
:101C00004FEA11404FEA144621EA004800FB06FC67
:101C100024EA064708FB06F607FB08F800FB07F76F
:101C200018EB06484CEB164C4FEA124B18EB0748E2
:101C30004FEA15464CEB174022EA0B4E0BFB06FC15
:101C400025EA06470EFB06F607FB0EFE0BFB07F721
:101C50001EEB064E4CEB164C4FF000061EEB074EEB
:101C60004CEB174B18EB0B0840F1000018EB0E0B78
:101C700058EB000840F100008F1A4FF000013CBF04
:101C8000C943661B14BFB5EB040C00213CBFC9431C
:101C9000F61B4FEA17444EEA8E0E27EA04454FEA38
:101CA0001C4704FB07622CEA074C05FB07F70CFBFB
:101CB00005F604FB0CFC16EB074642EB174216EB4D
:101CC0000C4642EB1C421BEB060658EB020241415C
:101CD00046EA9E0601D5BDE80189B619524141EB9D
:101CE0000101A3F10103BDE801894FEA14454FEA60
:101CF000114724EA054621EA074C05FB07F406FBD9
:101D000007F70CFB06F105FB0CFC11EB074144EB5C
:101D100017444FEA124711EB0C4144EB1C4422EAF2
:101D2000074C05FB07F206FB07F70CFB06F605FB65
:101D30000CFC16EB074642EB174216EB0C4642EB47
:101D40001C456A1854F1000148BF7047B61952414A
:101D500041EB0101A3F10103704795F0000F37D06B
:101D60004FEA11424FEA144721EA024624EA074C9F
:101D700002FB07F106FB07F70CFB06F402FB0CFC69
:101D800014EB074441EB17414FEA154714EB0C44A1
:101D900041EB1C4125EA074C02FB07F506FB07F760
:101DA0000CFB06F602FB0CFC16EB074645EB174551
:101DB00016EB0C4645EB1C42121951F1000148BFCD
:101DC0007047B619524141EB0101A3F1010370477D
:101DD0004FEA14454FEA114724EA054621EA074C29
:101DE00005FB07F106FB07F70CFB06F24FF00006B8
:101DF00005FB0CFC12EB074241EB174112EB0C42C6
:101E000051EB1C4148BF7047921841EB0101A3F10F
:101E10000103704710B5044606A000F08FFB07A031
:101E200000F08CFB204600F089FB05A000F086FB4B
:101E300010BD00001B5B33366D0000000D0A000072
:101E40001B5B306D0000000010B5044606A000F0DA
:101E500075FB07A000F072FB204600F06FFB05A0A9
:101E600000F06CFB10BD00001B5B33336D00000005
:101E70000D0A00001B5B306D0000000010B500F083
:101E800001F810BD0CB500200190009033480068A7
:101E900040F480303149086000BF3048006800F4E9
:101EA000003000900198401C0190009818B90198EA
:101EB000B0F5A06FF1D12948006800F4003010B1EE
:101EC0000120009001E0002000900098012843D1FB
:101ED0002348006840F01000214908600846006867
:101EE00020F0030008600846006840F00200086027
:101EF0001A484068194948600846406848600846E2
:101F0000406840F4806048600846406820F47C10D7
:101F100048600846406840F4E81048600846006899
:101F200040F08070086000BF0C48006800F000704E
:101F30000028F9D00948406820F0030007494860AC
:101F40000846406840F00200486000BF034840680F
:101F500000F00C000828F9D10CBD00000010024070
:101F60000020024000204FF0E02108616FF07F4028
:101F700048610020886104200861704710B513484B
:101F8000006840F0010011490860084640681049A7
:101F900008400E494860084600680E4908400B4951
:101FA00008600846006820F4802008600846406801
:101FB00020F4FE0048604FF41F008860FFF75EFFCA
:101FC0004FF000600449086010BD0000001002409E
:101FD0000000FFF8FFFFF6FE08ED00E010B500F08E
:101FE0002BF910BD490050EAC12018BF04204A0D4A
:101FF00018BF40F0010040F2FF72B2EB515F08BF22
:1020000040F00200012808BF0520704740F201326D
:1020100000204FF0E04100F08BBF0000024A00209A
:10202000110700F085BF000001FDFFFF10B5044659
:10203000D1E9000100F002F8206010BDF8B50446B7
:102040000D466A4600F0CCF800987E3000900028DB
:102050001EDC002213462046294600F0A3FC17D0C0
:10206000002140F608004FF00000064620462946B1
:1020700000F0FAFA044640F6080006EA00014FF0C4
:10208000000034F0004004BF0220FEF770F929E0A0
:102090000098FF2828DB002108464FF0000000F4DC
:1020A0004006002213462046294600F047FD8CBF1B
:1020B000002501250220FEF75AF94FF0FF4446B1F2
:1020C000002D0CBF4FF400004FF48000B04218BF49
:1020D000084C042108464FF00000002D04BF84F096
:1020E0000040F8BD2046F8BD20462946BDE8F8402E
:1020F00000F0BABAFFFF7F7F10B504460A46D4E964
:102100000003194600F04CF9C4E9000110BD303855
:102110000A2801D2012070470020704730B583B0F3
:102120000446FEF71FF905460020CDE900000246EF
:1021300021466846FEF76CFB2846FEF718F9DDE9F4
:10214000000103B030BD00002DE9F04F87B081469B
:102150004846FFF7E3FFCDE9040100221C4BDDE90F
:10216000040100F0C7FA054600F07EFA0446204656
:1021700000F0A8FD0290204600F0A4FD009000F0C1
:10218000BDFD8346214600F01CFE824600F00CFD9A
:1021900007464FF033320F4B00F0ACFA054600F023
:1021A00063FA0390029800F0A9FD0546039900F038
:1021B00027FD0190019800F0F7FC05462A460B46E2
:1021C00005A10648FEF712F807B0BDE8F08F000041
:1021D000000059403333E33F256600002E01002004
:1021E00010B5144600222260114A21F000439342A8
:1021F000A8BF10BD53EA000208BF10BDB3F5801F91
:10220000A8BF226807DA362200F092FE6FF035028E
:1022100021F000432260DFF81CC06FF31E510CEB6D
:1022200023531A4441F0FF5141F00051226010BD88
:102230000000F07F02FCFFFF10B52848006800F0A6
:102240006FF9264800680078242807D10020244927
:10225000086024490860244908603DE0224800687D
:10226000D0B11E48006800782C2809D11C4801789C
:102270001C4802680068401C1A4B18601B488154B7
:10228000164800680178164802680068401C144B24
:102290001860174881541FE016488078472810D1ED
:1022A0001448407847280CD112480078412808D1BA
:1022B00001200D49086000200E49087048708870A0
:1022C0000AE00C4840780B4988700846007848704E
:1022D000024800680078087010BD0000200000204F
:1022E000280000202C000020300000209800002052
:1022F000AC0000202400002070B50646701CC4B25B
:102300000E48005D2C2801D1012070BD002507E09A
:102310000A48005D0A494855681CC5B2601CC4B231
:102320000648005D2C28F3D10548FFF70DFF05494D
:102330000548FDF7A3FF0020E7E70000AC00002000
:10234000100100202E0100203A01002070B5064641
:10235000701CC4B20E48005D2C2801D1012070BD54
:10236000002507E00A48005D0A494855681CC5B2C7
:10237000601CC4B20648005D2C28F3D10548FFF765
:10238000E3FE05490548FDF779FF0020E7E7000077
:10239000AC0000201F0100202E010020460100207B
:1023A0002DE9F04106460C4640F2FF75174635EA26
:1023B00014502BD000221346304600F0F3FA25D0FB
:1023C0003A463046214600F0B3FD06460C4635EA53
:1023D000145010D000221346304600F0E3FA15D115
:1023E0000220FDF7C4FFFFF719FE0A46214662F3FB
:1023F0001E01BDE8F0810220FDF7B9FFFFF706FEE0
:102400000A46214662F31E01BDE8F08130462146AE
:10241000BDE8F081224823490860FFF7A3FD00F0E2
:10242000A1F84FF47A7000F071F837E062B64FF41B
:10243000FA6000F06BF872B61B490878FFF75CFF92
:10244000054619498878FFF781FF044645EA0400EC
:1024500030B116A0FFF7DEFC19A0FFF7F5FC1DE078
:1024600019A000F06BF819491948FDF74AFF1949FE
:102470001748FDF746FF18A11548FDF742FF174919
:102480001348FDF73EFF124800F058F81048FDF7DA
:1024900019FF064631460E48FDF73FFFC6E700002C
:1024A0001C00002020000020980000205369676E67
:1024B000616C204E6F7420466F756E6400000000E2
:1024C0005761726E696E67000D0A000000000020FF
:1024D000340000203A0100202C00000046010020BA
:1024E00009484FF0E02148610020886108460069F2
:1024F00040F00100086100BF4FF0E020006900F4E7
:1025000080300028F8D070473F19010000B502461E
:1025100003E0FFF7E5FF501E82B2002AF9D100BDAB
:1025200000BF0549098801F020010029F9D00249BE
:10253000091D098801707047004400400BE000BF8E
:102540000749098801F080018029F9D10178044AFE
:10255000121D1180401C01780029F0D17047000045
:102560000044004072B62748806940F001002549C8
:1025700088610846C06940F40030C8610846806937
:1025800040F00400886100201F4908600846006888
:1025900040F4206008600846006840F4004008608D
:1025A00040F6A660194908800020091D08800846E9
:1025B000008840F020000880262000280DDB00BFA6
:1025C00000BF00F01F02012191404209920002F178
:1025D000E022C2F8001100BF00BF00BF62B60B4886
:1025E000001D008840F008000849091D08800846C1
:1025F000008840F0040008800846008840F400503D
:102600000880704700100240000801400844004064
:1026100010B500290AD00878002807D0054878446A
:10262000FEF732FD002801D0002010BD024878449A
:1026300010BD00006E0A0000660A000010B50029F7
:102640000AD00878002807D005487844FEF71CFD1A
:10265000002801D0002010BD0248784410BD0000C1
:102660005E0A0000560A000021F00042A2F160520A
:10267000B2F5801F01F0004328BFD2F17F6C0BD967
:102680005FEA001C43EAC20242EB507018BF704779
:1026900028BF20F001007047B2F5801FBCBF18466C
:1026A00070474FEA410C1CF5001F02D2084600F0AB
:1026B00083BB70B500F0EEF900000089FFF7F6BFAC
:1026C0004FF00040A0F580007047000002494FF035
:1026D000000000F0FBBB00BF0000F87F491058BFAE
:1026E000C1F140415B1058BFC3F140438B42EFF34F
:1026F000008070472DE9C04130B4DFF8A0C23CEA49
:10270000111418BF3CEA131400F0EC8081EA0305B1
:102710001CEA111444EAD57418BF1CEA131500F022
:10272000C780A4EB05044FF0004545EAC12145EA06
:10273000C32341EA505143EA525304F17F74994252
:1027400004F500344FEAC0204FEAC22208BF90428D
:1027500000F09C804FEA13650FF24016765D4FEA59
:10276000134506FB05F7C7F1807706FB07F74FEA2D
:10277000D737A7FB03687642C8F58038A7FB06CE9B
:1027800038BFA8F1010807FB08E64FF0000EA6FBD2
:10279000028CE6FB03CEDCF1000CCEF1004E38BF1C
:1027A000AEF1010EA6FB0C584FF000074FF00005EC
:1027B000E6FB0E87A1FB08C6A0FB07CE16EB0E06B4
:1027C00045F10005E1FB076515F1E04E7EBFA4F57C
:1027D00080345FEA46066D4116F1800745F1000539
:1027E0004FEA17274FEA066647EA0567A6F1DE4675
:1027F000B6F1805F4FEA15251FD9384624F0010C49
:1028000005EBC471BCF1FE6F01EB0C1102D8F0BCFA
:10281000BDE8008124425CBF01F5801E9EEAC47FB2
:1028200002D4F0BCBDE80081244238D4F0BCA1F150
:10283000C041BDE8004100F07BB94FEAD22242EA34
:1028400043524FEAD323A7FB02864FEAD02040EA47
:10285000415007FB03661EEA0E0F4FEAD12105FB2C
:10286000026658BFA6EB0056B6EB00564FEA520E72
:102870004EEAC37E18EB0E0E56EB530EBDD518EB89
:1028800002085E417F1C55F10005B6E74FF4801544
:102890004FF000074FF000064FF00008ADE7F0BC26
:1028A0004FF0000001F1C04101F00041BDE800819E
:1028B00011EA0C1F0CEA131500D00CE013EA0C1FF0
:1028C00000F025804FF00000F0BC81EA030101F028
:1028D0000041BDE80081F0BCBDE8004181EA030190
:1028E00000F026B9F0BCBDE8004170B500F0D2F8A8
:1028F000097EFC3E00F007B881EA03014FF00000BA
:1029000001F00041704781EA030100F011B9F0BC09
:10291000BDE800414FF0000021497047FFFDFBF981
:10292000F7F5F4F2F0EEEDEBE9E8E6E4E3E1E0DE02
:10293000DDDBDAD8D7D5D4D3D1D0CFCDCCCBCAC874
:10294000C7C6C5C4C2C1C0BFBEBDBCBBBAB9B8B79B
:10295000B6B5B4B3B2B1B0AFAEADACABAAA9A8A88E
:10296000A7A6A5A4A3A3A2A1A09F9F9E9D9C9C9B5C
:102970009A99999897979695959493939291919007
:102980008F8F8E8E8D8C8C8B8B8A89898888878798
:102990008685858484838382828181800000FF070D
:1029A0000000F87F51EA030C17D41CF5801F58BFB4
:1029B000BCF5801F00F10680994218BF704708BF20
:1029C0009042704707D711F5801F58BF13F5801F3D
:1029D00019D499427047894270471CF5801F08D569
:1029E000BCF5801FF7D58B4218BF704708BF8242E5
:1029F00070474FF4001C1CEB410F38BF1CEB430F1A
:102A000001D28B42704770B500F044F8922449001F
:102A10004FF000514FF08053FFF760BE51EA030CB6
:102A200017D41CF5801F58BFBCF5801F00F106802D
:102A3000994218BF704708BF9042704707D711F5F9
:102A4000801F58BF13F5801F19D4994270478942DF
:102A500070471CF5801F08D5BCF5801FF7D58B4249
:102A600018BF704708BF824270474FF4001C1CEB30
:102A7000410F38BF1CEB430F01D28B42704770B53A
:102A800000F008F8922449004FF000514FF08053B5
:102A9000FFF724BE0EF1020E2EF0030E5EF8046B5B
:102AA000364205D4012A43EB030515F5001F12D861
:102AB000012841EB010C1CF5001F0CD80ED14FEA88
:102AC000D17C15F5001F0CEB4C0C0CF1020C08BF6F
:102AD0004CEBD37C04E04FF0080C01E04FEAD37CD0
:102AE0000CEB4C0526FA05F606F00706B6F1040CC9
:102AF00006D20EEB860CBDE870404CF0010C60472E
:102B0000DFE80CF0090B02024FF000414FF000002B
:102B1000A1F5002170BD19461046012851EB0104B2
:102B200018BFD4F5001484BF002001F0004170BD2F
:102B30000808A0F500114FEA3101704753EA010C73
:102B400017D41CF5801F58BFBCF5801F00F106800C
:102B50008B4218BF704708BF8242704707D713F5F2
:102B6000801F58BF11F5801F19D48B4270479B42BC
:102B700070471CF5801F08D5BCF5801FF7D599421A
:102B800018BF704708BF904270474FF4001C1CEB01
:102B9000430F38BF1CEB410F01D2994270470FB46D
:102BA0000CBC03BCFFF76BBF43004FEAD30C4FEAEA
:102BB0003C0C43401FBF40070CF1605113F0FE4F27
:102BC00070471CF0006F03D100200CF000417047EB
:102BD0000CF0004343EA507010B540EACC0000F01E
:102BE000A5F800BF000000924FEA0001FFF7A0BF68
:102BF0004FF000414FF00000A1F5002170470000A8
:102C000090EA010F48BF81F0004100F1EC80421AC8
:102C10003CBF801A89184FEAD0524FF07F4C1CEA13
:102C2000410FA2EBD15318BF9CEA026F00F03B802A
:102C30004FF0004C4CEA00204CEA012121FA03FC41
:102C400010EB0C0C1ED202F1FF325FEA1C2040EBAD
:102C5000C25038BF70471CF07F0F4FEA400C18BFBE
:102C6000BCF17F4F38BF7047C3F12003994008BFC4
:102C700020F00100BCF17F4F38BF7047A0F1C04089
:102C800000F09AB84FEA3C00000A40EBC25028BF5F
:102C90001CF0FF0F4FEA400CE6D018BFBCF17F4F8D
:102CA00038BF7047EAE79CEA026F05D010EA5C0F74
:102CB00008BF00F00040704710B500F037F800BFC3
:102CC00064FBBE3E41000B0ED3F19E0208D950F4C6
:102CD00000034FEA032323FA02F048BF4042704743
:102CE00010B500F023F800BF4992248000207047FF
:102CF0006FF0004282EA20007047000010F00041AF
:102D000048BF4042B0FA80F310FA03F2C3F19D03CA
:102D10000BD051EAC35101EB1220530638BF704764
:102D200000F1010008BF20F0010070470EF1020E13
:102D30002EF0030E5EF8044B244204D44FEA410205
:102D4000B2F17F4F11D84FEA4003B3F17F4F0CD857
:102D50000ED14FEAD07CB2F17F4F0CEB4C0C0CF152
:102D6000020C08BF4CEBD17C04E04FF0080C01E0F2
:102D70004FEAD17C0CEB4C0324FA03F404F0070473
:102D8000B4F1040C06D20EEB840CBDE810404CF0FC
:102D9000010C6047DFE80CF0070802024FF000402A
:102DA000A0F5800010BD0846420018BFD2F1807225
:102DB00088BF00F0004010BDFF2141EAD050C0059F
:102DC000704780F0004090EA010F7FF520AF81F05E
:102DD000004100F008B8000090EA010F48BF81F000
:102DE00000413FF514AF421A04D882F00042A0EB34
:102DF000020011444FEAD0524FF07F4C1CEA410FC1
:102E0000A2EBD15318BF9CEA026F4AD04FF0004C9E
:102E10004CEA00204CEA012121FA03FCB0EB0C0C37
:102E20000FD412F0FE0F36D05FEA4C001DD5001211
:102E300040EBC25038BF70471CF03F0F18BF7047BF
:102E40000BE0A2F101025FEA1C2040EBC25038BF48
:102E500070471CF07F0F18BF7047C3F120039940E3
:102E600014BF401E20F00100704780084FEA122373
:102E700008BF7047B0FA80FCA2EB0C02CCF1280C22
:102E800060FA0CF093EA122F04BF00EBC2507047B7
:102E90004FEAC3707047130A5FEADC1008BF70473F
:102EA000F6E79CEA026F04D010EA5C0F08BF00202E
:102EB000704710B5FFF73AFF40DFF63E81F0004063
:102EC00070474FF000007047FDF730BB0CF00F0368
:102ED000092B08BF082000F05F800A2B0BD0082BBD
:102EE00018BF704708BF1CF0400F0AD04FF0000019
:102EF0004FF0000170471CF0400F18BF4FF000402A
:102F000070471CF0100F08D020F0704300F07F4293
:102F100042EAD3014FEA4370704700F0604021F06D
:102F20007F4242EA000201F07F4040EA727070473F
:102F30004FF0FF0C4CF4E06C1CEA11531CBF9CEAF0
:102F4000030C9445C2BFDA4201EB02517047002BDB
:102F50000DD0BCF1000F0FD0002A01F00041A4BF3A
:102F600041F0E04141F07F614FF00000704701F017
:102F700000414FF00000704750EA01334FF09B0CC6
:102F800018BF4CF0806C7FF4A1AB7047FDF71CBFFD
:102F9000FEF7BAB8FEF748BA1CF4801F11D01CF433
:102FA000E02F03D06FEACC31490070474FF040501A
:102FB000EFF3008222F0704242EA000282F30088BE
:102FC00070474FF00000704702400000000000A072
:102FD0000000000005400000000000C800000000E4
:102FE0000C4000000000409C000000001940000060
:102FF0000020BCBE0000000034400000BFC91B8E92
:1030000000000004B5400000504BCFD06607E2CF6F
:10301000010000006C4100003E8251AADFEEA7349F
:1030200001000000D9420000DCB5A0E23A301F9751
:10303000FFFFFFFFB4450000FD25A0C8E9A3C14F75
:10304000FFFFFFFFFF3F00000000008000000000C6
:10305000FF3F00000000008000000000B8310008C1
:10306000000000203400000028010008EC310008B6
:103070003400002084070000440100080000000024
:103080000000F07FFFFFFFFFFFFFEF7F1C0000004D
:1030900043000000F8FFFFFF0C0000000E000000DE
:1030A0000F0000002E00000010010000430000008F
:1030B000F8FFFFFF00404040404040404040414159
:1030C00041414140404040404040404040404040FD
:1030D0004040404040050202020202020202020297
:1030E0000202020202202020202020202020200294
:1030F0000202020202029090909090901010101024
:1031000010101010101010101010101010101010BF
:103110000202020202028888888888880808080853
:10312000080808080808080808080808080808081F
:103130000202020240000000000000000000000047
:10314000000000000000000000000000000000007F
:10315000000000000000000000000000000000006F
:10316000000000000000000000000000000000005F
:10317000000000000000000000000000000000004F
:10318000000000000000000000000000000000003F
:10319000000000000000000000000000000000002F
:1031A000000000000000000000000000000000001F
:1031B000000000000000000068747470733A2F2F44
:1031C0006D6170732E676F6F676C652E636F6D2F07
:1031D0003F713D0000000000000000000000000002
:0C31E000000000000000000000000000E3
:04000005080000ED02
:00000001FF
